:020000040800F2
:10000000002000203D210008850E0008870E000812
:1000100000000000000000000000000000000000E0
:10002000000000000000000000000000890E000831
:1000300000000000000000008B0E00088D0E00087C
:100040008D2100088D2100088D2100088D210008D8
:100050008D2100088D2100088D2100088D210008C8
:10006000000000008D2100088D2100088D2100086E
:100070008D2100088D21000800000000950E000869
:10008000000000008D2100080000000000000000BA
:100090008D210008000000008D2100088D2100083E
:1000A0008D2100088D2100088D2100088D21000878
:1000B0008D2100088D2100080000000000000000D4
:1000C00010B5064C2378002B07D1054B002B02D02E
:1000D000044800E000BF0123237010BD3C04002051
:1000E0000000000044330008044B10B5002B03D07F
:1000F0000349044800E000BF10BDC04600000000F6
:100100004004002044330008002243088B4274D38B
:1001100003098B425FD3030A8B4244D3030B8B4208
:1001200028D3030C8B420DD3FF22090212BA030C11
:100130008B4202D31212090265D0030B8B4219D3F2
:1001400000E0090AC30B8B4201D3CB03C01A524112
:10015000830B8B4201D38B03C01A5241430B8B425A
:1001600001D34B03C01A5241030B8B4201D30B0343
:10017000C01A5241C30A8B4201D3CB02C01A52416A
:10018000830A8B4201D38B02C01A5241430A8B422D
:1001900001D34B02C01A5241030A8B4201D30B0216
:1001A000C01A5241CDD2C3098B4201D3CB01C01A30
:1001B000524183098B4201D38B01C01A524143093A
:1001C0008B4201D34B01C01A524103098B4201D328
:1001D0000B01C01A5241C3088B4201D3CB00C01A95
:1001E000524183088B4201D38B00C01A524143080D
:1001F0008B4201D34B00C01A5241411A00D2014632
:10020000524110467047FFE701B5002000F006F8A4
:1002100002BDC0460029F7D076E770477047C04658
:10022000002B11D1002A0FD1002900D1002802D0C3
:100230000021C943080007B4024802A140180290F7
:1002400003BDC046D9FFFFFF03B4684601B502985D
:1002500000F034F8019B9E4602B00CBC7047C046CB
:10026000F0B5CE46474680B5070099463B0C9C4604
:1002700013041B0C1D000E0061460004140C000C3E
:1002800045434B4360436143C0182C0C20188C46F7
:10029000834203D980235B029846C444494679438C
:1002A0007243030C63442D042D0CC918000440193B
:1002B0008918C0BCB946B046F0BDC046F0B5574637
:1002C0004E464546DE46E0B504000D00924699468E
:1002D00083B08B4230D82DD04946504600F0D8F834
:1002E00029000600200000F0D3F8331A9846203B7E
:1002F0009B4633D45A465346934042461F005346CA
:1003000093401E00AF423AD8AF4200D178E05B463E
:10031000A41BBD41002B00DA75E0002200230092EF
:10032000019301235A46934001930123424693408F
:10033000009328E08242CFD900220023009201934B
:100340000C9B002B01D01C605D600098019903B0EC
:10035000F0BCBB46B246A946A046F0BD42462023AB
:100360009B1A5246DA40414613004A468A4017001B
:1003700042461F43534693401E00AF42C4D9002259
:100380000023009201934346002BD9D0FB0772084B
:100390001A4346467B080EE0AB4201D1A2420CD87C
:1003A000A41A9D41012024196D410021013E241809
:1003B0004D41002E06D0AB42EED9013E24196D41CD
:1003C000002EF8D1009801995B4600196941002B75
:1003D00024DB2B005A464446D3402A00E2401C004E
:1003E0005B461500002B2ADB26009E4033002600CA
:1003F0004746BE403200801A9941009001919FE724
:10040000A342BCD883E74246202300219B1A002246
:10041000009101920122DA40019286E742462023B0
:100420009B1A2A0046469A402300F3404446134351
:100430002A00E2401C005B461500002BD4DA42463D
:100440002F002023260097409B1ADE403B003343B9
:10045000CDE7C0461C2101231B04984201D3000CA8
:1004600010391B0A984201D3000A08391B09984227
:1004700001D30009043902A2105C40187047C0463D
:10048000040302020101010100000000000000005D
:1004900010B5002903D1FFF7DDFF203002E008008E
:1004A000FFF7D8FF10BDC04682B0019000E0C04603
:1004B000019B5A1E0192002BF9D102B0704710B572
:1004C00086B004001422002101A802F065FE112369
:1004D0000293103B0393023304932389019301A9F0
:1004E000206801F00DFF63890193606801A901F0A4
:1004F00007FF06B010BD43681B6942891A4201D04C
:10050000012070470020FCE7F0B5D6464F4646462E
:10051000C0B584B00500884617001E000CAB1B88D0
:100520009A460DAB1B7899466C461022002120009C
:1005300002F032FE43460093676053466381268192
:100540004B4663730723A3732000FFF7B8FF2B000C
:1005500007CC07C322681A60280004B0E0BCBA4682
:10056000B146A846F0BD032904D0438942681B0464
:1005700093617047038902681B049361F9E70329BB
:1005800003D0428943689A617047028903689A617F
:10059000FAE710B504000321FFF7F1FF0421200062
:1005A000FFF7EDFF1420FFF77FFF04212000FFF786
:1005B000DAFF1420FFF778FF03212000FFF7D3FFB5
:1005C0001420FFF771FF10BD10B504000421FFF7E0
:1005D000CAFF03212000FFF7D2FF1420FFF764FFBA
:1005E00004212000FFF7CBFF10BD10B5040004214B
:1005F000FFF7B9FF1420FFF757FF03212000FFF793
:10060000BEFF1420FFF750FF03212000FFF7ABFFD0
:100610001420FFF749FF04212000FFF7B0FF10BDB1
:1006200010B504000421FFF7AAFF1420FFF73CFFD8
:1006300003212000FFF7A3FF1420FFF735FF03215C
:100640002000FFF790FF1420FFF72EFF10BD70B5BC
:1006500006000025002408E003213000FFF783FF97
:100660001420FFF721FF0135EDB2072D11D86400EA
:10067000E4B203213000FFF782FF1420FFF714FFDC
:100680003000FFF738FF0028E6D001231C43E4B216
:10069000E2E7200070BD70B506000C00002519E0EF
:1006A00004213000FFF76BFF1420FFF7FDFE03214C
:1006B0003000FFF764FF1420FFF7F6FE032130003F
:1006C000FFF751FF072D0FD06400E4B21420FFF7AD
:1006D000EBFE0135072D0CDC63B2002BE0DB0421BF
:1006E0003000FFF740FFDFE704213000FFF747FF4E
:1006F000EAE770BD10B504000421FFF740FF1420A5
:10070000FFF7D2FE03212000FFF739FF1420FFF787
:10071000CBFE2000FFF7EFFE002808D103212000C8
:10072000FFF721FF1420FFF7BFFE002010BD0321BB
:100730002000FFF718FF1420FFF7B6FE0120F5E7B1
:10074000F0B5C64600B5060088461700FFF721FF42
:10075000717B490001231943C9B23000FFF79BFFA9
:100760003000FFF7C7FF00281BD1002403E0300052
:10077000FFF73BFF0134BC420CD243461D19300049
:10078000FFF765FF28707B1EA342F0D13000FFF712
:1007900047FFEFE73000FFF717FF052080BCB846A2
:1007A000F0BD0620FAE7F8B505000C0017001E00A2
:1007B000FFF7EFFE6B7B5B00D9B22800FFF76BFF02
:1007C0002800FFF797FF21002800FFF764FF2800AB
:1007D000FFF790FF002400E00134B4420DD2395DF0
:1007E0002800FFF758FF2800FFF784FF0028F3D008
:1007F0002800FFF7E9FE062003E02800FFF7E4FEEB
:100800000520F8BDF8B504000F0015001E00FFF725
:10081000C0FE607B4000C1B22000FFF73CFF20001B
:10082000FFF768FF39002000FFF735FF2000FFF7D2
:1008300061FF2000FFF7C8FE320029002000FFF70B
:100840007FFFF8BD0023037043702D228270C370B8
:100850000023436070470000F0B583B005000C0032
:10086000080000F04CFB0121200000F0D3FD002126
:10087000200000F08AFE3D49200000F079FEAE78AD
:10088000632E50D93A4F31233B700A213000FFF7D5
:100890003BFCC0B20A21FFF7BDFC303179702E233A
:1008A000BB700A213000FFF7B5FC3031F9705623D8
:1008B0003B71AB786D2B48D914212D4B18222000A9
:1008C00000F018FE2B4B32222421200000F012FEF3
:1008D000342300934B3334220021200000F036FFF4
:1008E0002549200000F044FE2B78012B2FD0234B0C
:1008F0003F220021200000F0FDFD7F2300933F3BBD
:1009000034224021200000F021FFEB78012B25D07C
:100910001B4B3F224021200000F0ECFD200000F0A6
:10092000FAFA03B0F0BD0A213000FFF7EDFB3030DA
:100930000F4F38702E237B700A213000FFF76AFCBE
:100940003031B9705623FB70B3E72421B5E70D4B66
:100950003F220021200000F0CDFDCEE70A4B3F22D0
:100960004021200000F0C6FDD8E7C046403D000809
:10097000580400205C3300089C33000868330008EA
:1009800074330008643300086C330008002903D076
:10099000962902D9962100E00121817070470378E1
:1009A0000122534003707047C37801225340C37043
:1009B00070470000F0B5D6464F464646C0B588B0F1
:1009C0001422002103A802F0E7FB374BDA6A8021EA
:1009D00088460A43DA62DA6A0A400092009ADA6AC2
:1009E00001252A43DA62DA6A2A400192019ADA6A18
:1009F00002242243DA62DB6A23400293029BA0278F
:100A0000FF0500226839380001F049FD274E002219
:100A10007821300001F043FD0394002404940594F0
:100A200003A9380001F06CFC64230393049405953A
:100A300003A9380001F064FC18239A460393049537
:100A40000594153B9946069303A9380001F058FC1C
:100A500053460393049505944B46069303A930002F
:100A600001F04EFC202303931127049705954B4674
:100A7000069303A9300001F043FC4023039304973D
:100A80000595069403A9300001F03AFC4346039310
:100A90000494059403A9300001F032FC08B0E0BCD6
:100AA000BA46B146A846F0BD00100240000400500E
:100AB00000B583B01A4B834201D003B000BDA02023
:100AC0000221C00501F0E4FC012803D06423FF33B8
:100AD000019317E06423FF33009302E0009B013B86
:100AE0000093009B002BF9D1A0200221C00501F04A
:100AF000CFFC0128E1D10B4B01221A70DDE7019BED
:100B0000013B0193019B002BF9D1A0200221C005DC
:100B100001F0BEFC0028D0D1024B02221A70CCE7B3
:100B2000640400206204002070B582B01D4B1B7865
:100B3000012B13D000236A46D3711B4C01330732BB
:100B400001212000FFF72FFE01236A46D3710732EF
:100B500002212000FFF727FE02B070BD114B9A78EA
:100B60009300D21853009EB26A46D41D0022227010
:100B7000DB0823700C4D0123220001212800FFF720
:100B800012FE072333402370012322000021280096
:100B9000FFF709FE01232370220002212800FFF73E
:100BA00002FED9E748050020A404002072B6FEE743
:100BB00000B587B00822002104A802F0EDFA102247
:100BC0000021684602F0E8FA17488023DB0503603D
:100BD000164B4360002383600922C26003618033A7
:100BE000436102F0EEF8002818D100230493059326
:100BF00004A90D4802F07CFA002811D100230093CB
:100C00000122019202930F330393002269460648A2
:100C100002F072F9002805D107B000BDFFF7C6FF4A
:100C2000FFF7C4FFFFF7C2FF640400207F0C000041
:100C300000B593B03422002105A802F0ADFA1422C9
:100C40000021684602F0A8FA17490B68174A1A40B3
:100C500080231B0113430B600123059380235B0258
:100C6000069302220E920F938023DB0210938023BF
:100C7000DB03119305A801F06FFC00280FD10F23AF
:100C800000930C3B019300230293039304930121EF
:100C9000684601F0E7FE002803D113B000BDFFF75E
:100CA00085FFFFF783FFC04600700040FFE7FFFFAE
:100CB00070B588B001F094FAFFF7BAFFFFF77AFE3B
:100CC000FFF776FF00214A4802F0A0F8494D2800BE
:100CD00001F01CFA484C2000FFF7B4FD2900200069
:100CE000FFF7BAFD454D02AC45496F2301932F3BF9
:100CF0000093203B0A002000FFF706FC2B0007CCE6
:100D000007C322681A60FFF70FFF1F246C440026F8
:100D100026707F2323707E3B220003212800FFF7EB
:100D200042FD26700123220003212800FFF76AFDFF
:100D3000344B1E70002535E02F4BDB78002B35D16E
:100D40002D4881780139C9B2FFF720FE2D4B0022D2
:100D50001A7025002CE0284BDB78002B28D1264880
:100D600081780131C9B2FFF711FE264B00221A70BB
:100D700001251DE0013001F059FAA0200421C00531
:100D800001F086FB00281ED11B48FFF708FE012555
:100D900019E0002D06D017491748FFF75DFDFFF752
:100DA000C3FE0025174B1C78012CC5D0022CD2D0D5
:100DB000A0200421C00501F06BFB002803D10E4BDD
:100DC000DB78002BD6D0A0202021C00501F060FBED
:100DD0000028DED1013001F029FAA0202021C00531
:100DE00001F056FB0028D4D10348FFF7DDFDD2E720
:100DF00064040020B404002048050020A40400205E
:100E00000004005062040020054B5A6B01210A4384
:100E10005A63996B802252050A439A637047C04611
:100E20000010024010B586B004001422002101A871
:100E300002F0B2F922688023DB059A4201D006B0A5
:100E400010BD0F4B996B012211439963D96A11436D
:100E5000D962DB6A13400093009B01920223029344
:100E60000593A02001A9C00501F04AFA0022002143
:100E70000F2001F0EDF90F2001F01AFADFE7C0466C
:100E800000100240FEE7FEE77047704710B501F022
:100E9000BBF910BD10B5024802F098F810BDC0466D
:100EA00064040020704710B582B003681B7C59436E
:100EB000C90089B2446BA44661440091002101F04D
:100EC00075F802B010BDF0B5C64600B5060038236F
:100ED000C75C0133C55C03685B7C984600242A002C
:100EE00021003000FFF7DFFF0134E4B20135EDB23D
:100EF000A74201D9A845F2D880BCB846F0BD10B5CC
:100F000003681A7C3823C35C5A43D200406B00212B
:100F100002F042F910BD10B50400FFF7D4FF200025
:100F200001F068F810BD0000082303700048704706
:100F30005005002070B584B004000D00009313002C
:100F4000084A094901F078F80F266E443000FFF78F
:100F5000EBFF010032780095044B200000F045FDC6
:100F600004B070BD3D1D0008051F00082D180008C5
:100F7000405C70474218435C1B025078C01880B236
:100F800070470020704770B504000D000021280054
:100F9000FFF7EEFF207001212800FFF7E9FF6070E6
:100FA00002212800FFF7E4FFA07003212800FFF7CB
:100FB000DFFFE07004212800FFF7DAFF2071052130
:100FC0002800FFF7D5FF607106212800FFF7D0FF4A
:100FD000A07107212800FFF7CBFFE071082128004E
:100FE000FFF7C6FF207209212800FFF7C1FF6072DA
:100FF0000A212800FFF7BCFFA0720B212800FFF791
:10100000B7FFE0720C212800FFF7B2FF20730D211B
:101010002800FFF7ADFF60730E212800FFF7A8FF3F
:10102000A0730F212800FFF7A3FFE0731021280011
:10103000FFF79EFF207411212800FFF79BFF6082BD
:1010400013212800FFF796FFA08215212800FFF743
:1010500091FFE08270BDF0B50400067B07683D7823
:101060003541E8B27218D2B2072A0AD908239E1B6A
:10107000F6B27B1C23607B78B3402B43D8B2083A8E
:10108000D2B201235B428B4098432273F0BD70B50E
:101090000500040060340166002323737833C15CCB
:1010A0002000FFF7D8FFA0727923E95C2000FFF74A
:1010B000D2FFE0729223EB5CA3735A425341E37375
:1010C00070BD10B50C00FFF7C6FF013CE4B2012370
:1010D000A340C01A40B210BD012B09D0022B0AD088
:1010E000002B02D0401A80B201E0801880B2704715
:1010F000401880B2FBE7801A80B2F8E7012B09D0D4
:10110000022B0AD0002B02D0801880B201E04018D8
:1011100080B27047801A80B2FBE7401A80B2F8E7CD
:10112000F0B5DE4657464E464546E0B589B00792D3
:10113000030060331A7A90465B7A0393894607006E
:101140001CE04B46059322E03B006033997B9223E1
:10115000F9546B469B8A514600910699380000F07D
:1011600043FAA94542D343461C1B4C44E3B299467B
:10117000039B0133DBB20393002398463B006033AB
:101180009C7A4346E51AEDB2A945DAD305953B00B2
:1011900060339888DA88049241464EB26A460C2140
:1011A00051568B461B7C9A460A003100FFF7A6FF7A
:1011B000069053465A4631000498FFF78DFF02000F
:1011C000079B002BC0D13B0060335B7B002BC8D159
:1011D0003B006033D97B9223F9546B469B8A51467E
:1011E00000910699380000F0FFF9BAE75B464946DE
:1011F0004144380060300172437209B0F0BCBB4614
:10120000B246A946A046F0BDF0B5DE4657464E466A
:101210004546E0B587B0040005006035FFF737FFAD
:101220006B23E35699467A23E15C2800FFF749FFD8
:1012300082467B23E15C2800FFF743FF06007C2306
:10124000E15C2800FFF73DFF03900A23EB56984628
:10125000002B6EDD4E44F6B2764277B22E7CA88823
:1012600033003A005146FFF749FF05900490A880EB
:10127000E88833003A005146FFF72EFF0200E8806D
:10128000022E67D013D8002E5BD0012E0DD1059B06
:101290004946591A89B2013101339BB24646B6B26A
:1012A000801980B289B2049110E0059B0EE0032EF4
:1012B0000BD1059B4B449BB2424692B2821A92B22A
:1012C0000132013080B292B200E0059B0090049997
:1012D000200000F023FA00282BD0230060330022E6
:1012E0001A725A727623E15C2800FFF7B4FE0700F9
:1012F0007723E15C2800FFF7AEFE060000223900EC
:101300002000FFF70DFF012231002000FFF708FF4A
:1013100001212800FFF79FFE0028EFD12300603352
:101320005B7A5BB24B45DDDB230060339A7B922313
:10133000E254039807B0F0BCBB46B246A946A046AB
:10134000F0BD43469BB205998C4663449BB248442A
:1013500080B2BBE7434699B2059B591A89B2013165
:1013600001339BB24A46821A92B20132013080B2F6
:1013700092B289B20491A9E770B50E00846D17345A
:10138000FF2914D8602903D98823C35AE41806E03A
:10139000402904D98623C35AE41800E0E41863788E
:1013A000002B20D02278B242F8D1A01C1CE08A2366
:1013B000C05A2418250000212800FFF7DBFD24185F
:1013C00002212800FFF7D6FD04358642F3D801E05C
:1013D000A378E418227812026378134305D09E4262
:1013E000F6D1E01C00E0002070BD0020FCE710B545
:1013F0000400642021526621625219002000FFF788
:10140000BBFF011E04D02000FFF7FEFE80B210BD1E
:101410000020FCE76D23C1547047F8B504000D00AF
:1014200016001F007023C05C02281ED009D80028B7
:101430000FD0012812D12000E36D98472D1AADB2CC
:101440000CE003280AD12000E36D98472D18ADB2B7
:1014500004E02000E36D98473618B6B23B00320036
:1014600029002000FFF7C3FFF8BD2000E36D984777
:10147000361AB6B2F2E70000F0B5C64600B5040071
:101480000F0016001D0000F0DFFA0023984609E067
:10149000032B04D1361AB6B201E03F18BFB2404464
:1014A00083B2984629782000636898470F4988429C
:1014B00018D001350E498842F4D0030032003900BB
:1014C0002000FFF7AAFF7023E35C022B07D0DFD8D0
:1014D000002BE2D0012BE2D13618B6B2DFE73F1A7B
:1014E000BFB2DCE7404680BCB846F0BDFFFF00005D
:1014F000FEFF000010B5024C4460FFF7BDFF10BDB9
:10150000311A000830B5836D002B1DD08123C256DF
:101510000D33C2540C3BC3568F2143540239415CF6
:10152000002911D0012910D07E2141568024045772
:101530000D19AA4204DAC9B2E2B289188E22815486
:10154000A34201DD8F23C45430BD823141568A420B
:1015500001DA8E228154842282569342F4DD8F2355
:10156000C254F1E7014BC3657047C046830F0008C2
:1015700010B50400836D8B4206D081657430FFF78F
:1015800002FD2000FFF7BEFF10BD7023C15470475D
:1015900030B505880C886419A4B2A54203D99D42D0
:1015A00010D25C1EA4B29D420ED294420ED9954236
:1015B00000D32A009C4200D8230002809B1A0B8093
:1015C000012030BD1500EEE70020FAE70020F8E723
:1015D00030B583B006AC2578C48F121B92B2C46AB2
:1015E0000095A04703B030BD70B584B0040008A8D2
:1015F00005780E206844018003A90A800A226A4403
:1016000013808C23E35C002B30D01388002B2DD06B
:10161000012B03D9022D2BD0032D30D001231E0026
:101620002E402B4233D14B33E25A03AB1B889A42F4
:101630001CD84E22A25A934218D24A23E35A482277
:10164000A25A0A2169440E206844FFF7A1FF00282E
:101650000CD0236B9D680A236B441B8803AA128855
:101660000E216944098800962000A84704B070BD87
:101670000288D31A9BB2038001330380CEE703A90B
:101680000A88D31A9BB20B8001330B80C6E748232C
:10169000E25A3A3B6B441B889A42E7D84A22A25A44
:1016A0009342E3D24E23E35A4C22A25A0A216944C0
:1016B00003A8FFF76DFF0028CBD1D7E700B583B0B3
:1016C0004C23C35A93420BD84E23C35A934207D993
:1016D0004823C35A8B4203D84A23C35A8B4201D8AA
:1016E00003B000BD002300930133FFF77DFFF7E750
:1016F0008A4205D2834209D89A4209D9012006E0DC
:10170000834207D99A4207D9012000E0012070479F
:101710000020FCE70020FAE70020F8E770B506009B
:101720000C001D0004AB1B884E21415A4C20305A3E
:10173000FFF7DEFF002807D04A23F15A023BF05A98
:101740002B002200FFF7D4FF70BD0000F0B5DE468D
:1017500057464E464546E0B583B0814617001D000A
:101760000CAB1C88A94229D94B1B9BB29846A742B7
:1017700028D93B1B9BB29A46D04527D35346C24635
:10178000984623002C001D003B000F001900002389
:101790009B46A74205D82B000D00190023003C00F2
:1017A0001F0053465E0836B28D4212D201230193C8
:1017B0001D4B9F421ED1013FBFB21BE06B1A9BB273
:1017C0009846D4E7E31B9BB29A46D5E701239B4694
:1017D000DFE701235B420193EAE722002900484644
:1017E000FFF76CFF4346F31A9AB21EB21B040CD4E7
:1017F0000134A4B2A7420FD35B46002BEDD12A00DF
:1018000021004846FFF75AFFECE76B469B885D19BD
:10181000ADB2524416B2EBE703B0F0BCBB46B246E1
:10182000A946A046F0BDC046FFFF0000F0B5C64681
:1018300000B50E0006A909788C4607271740012439
:10184000BC40E4B29221415C01291DD90025012947
:101850001CD007218A430168097C514389B2891948
:10186000426B904641446246002A19D10A782A43C5
:10187000D2B20A7062400A700131013B9BB2002B68
:10188000F4D180BCB846F0BD2500E0E70024E0E7D5
:10189000012519E06D00EDB26400E4B2002BF0D038
:1018A0000A782A43D2B20A7062400A707A1C07266C
:1018B00037001740013B9BB21642EBD1428F89188B
:1018C0009222825C012AE3D9012AE7D00124E5E7CC
:1018D00070B501683823C45C2300E20082870A7C6B
:1018E000D20042873922855C2E00EA00C287641943
:1018F0004D7CAC4201DDAB1B9BB2DB009BB24024B4
:10190000025302340253D31803538A8A4423C25227
:10191000CA8A0233C25270BD10B5FFF7D9FF10BD9D
:1019200010B582B004005223C35A5422825A502167
:10193000415A5620205A00902000FFF7EFFE002861
:1019400004D18C230022E25402B010BD8C2301226A
:10195000E254443BE25A0833E35A9A4201D2482205
:10196000A3524A23E25A0833E35A9A4201D94A223F
:10197000A3524C23E25A0833E35A9A4201D24C2232
:10198000A3524E23E25A0833E35A9A42DCD94E223C
:10199000A352D9E710B548230022C252043BC25AD1
:1019A0000633C2520A3BC25A0C33C2520A3BC25AD5
:1019B0000C33C252FFF7B4FF10BD10B582B004ACB7
:1019C00024780094FFF704FE02B010BD10B5002388
:1019D0005022835204328352013B023A8352043232
:1019E0008352036B5B68984710BD70B50400049880
:1019F0000025A565E36261633823E2540133E554B1
:101A00003433E5542433E554043BE5548C3B9222B3
:101A1000A3540132A3542063036820009847200098
:101A2000FFF7D4FF2000FFF79DFD7023E55470BD44
:101A3000002903D00A2903D088B270470148FCE787
:101A40000048FAE7FFFF000026230022C254704737
:101A500010B503685A7B2D2100F0D3FA10BD10B5E4
:101A6000040001224C2100F0CCFA01224D2120007B
:101A700000F0C7FA2000FFF7EBFF10BD10B504001F
:101A800001224C2100F0BDFA2000FFF7E1FF10BD5C
:101A900010B501224D2100F0B4FA10BD10B500229E
:101AA0004D2100F0AEFA10BD10B50400FFF7F6FFAF
:101AB0002000FFF7CDFF2000FFF7E0FF2000FFF739
:101AC000E7FF2000FFF7C4FF25230022E25410BDEA
:101AD00010B500224C2100F094FA10BD10B504009E
:101AE0002523C35C002B0FD12000FFF7D1FF20007E
:101AF000FFF7D4FF2000FFF7ABFF2000FFF7E8FF60
:101B000025230122E25410BDFFF7C2FF2000FFF79A
:101B10009FFF2000FFF7B2FFE6E710B504000029A1
:101B20000BD0FFF7B5FF2000FFF792FF2000FFF773
:101B3000A5FF2000FFF7CCFF10BDFFF7AFFFF2E7D6
:101B400010B50400FFF7A4FF2000FFF781FF20007D
:101B5000FFF794FF2000FFF79BFF2000FFF778FFBF
:101B60002000FFF7B5FF10BD70B504000D007F2306
:101B70009943FFF7D2FF402129402000FFF7CDFF16
:101B8000202129402000FFF7C8FF10212940200014
:101B9000FFF7C3FF082129402000FFF7BEFF042103
:101BA00029402000FFF7B9FF022129402000FFF75C
:101BB000B4FF012129402000FFF7AFFF2000FFF70D
:101BC000BFFF70BD10B5130004690A001721A047BC
:101BD00010BD00B583B06B46DA1D11700121FFF70F
:101BE000F1FF03B000BD10B50469002300221821E5
:101BF000A04710BD10B50469002300221921A04799
:101C000010BD000070B5060014001D001439CBB2E1
:101C10000C2B03D89900114B5B589F46002070BDD8
:101C200029783000FFF7A0FF0135013CE4B2002C19
:101C3000F6D10120F3E7FFF712FF0120EFE7FFF7EE
:101C40004DFF2423F15C3000FFF78EFF0120E6E713
:101C5000FFF72AFF0120E2E70120E0E70C940008EB
:101C600070B504000D001600FFF7BDFF40212000F5
:101C7000FFF7AFFF33002A00172120002569A8478E
:101C80002000FFF7B7FF70BD10B50A00C46800233D
:101C90001521A04710BD10B50A00C4680023162105
:101CA000A04710BD10B51300C4680A001721A04753
:101CB00010BD10B5C468002300221821A04710BD34
:101CC00010B5C468002300221921A04710BD70B5CB
:101CD00082B006000C0016E015290CD202B070BDCF
:101CE000FE29FBD12A786B46DA712921300000F0F9
:101CF00088F9023407E02A786B46DA710023300055
:101D0000F568A84702342178651C1929E8D81829F4
:101D10000DD21629E0D91729E0D12B786A4607326F
:101D2000137001213000FFF7BDFF0234EBE7002301
:101D300000223000F468A0472C00E4E7F8B5070063
:101D400014001E000D00143DEBB2052B59D89D0068
:101D50002D4B5B599F462D4B1B78002B0FD1380024
:101D6000FFF741FF00213800FFF733FF2100380063
:101D7000FFF72FFF254B01221A700120F8BDFFF756
:101D800039FFECE71100FFF724FF0120F6E71F4BB6
:101D90001B78002B0AD0FFF72DFF07E03200182137
:101DA0003800FFF75DFF183CE4B21836182CF5D860
:101DB000320021003800FFF753FF144B00221A7045
:101DC0000120DBE72423C35CFF2B05D03D693300F2
:101DD00022003800A847D1E7DB3B7822C254F5E760
:101DE0000A4B00221A700120C8E7084B1B78002B11
:101DF00004D1064B00221A700120BFE7FFF7FAFE5C
:101E0000F7E70020BAE7C0464094000850090020D8
:101E1000F8B5050014001E000E295BD010D80B2960
:101E200043D00D290AD1002A4BD13249FFF74FFF89
:101E30002B689A7C2223EA54012035E0002033E00D
:101E40000F2930D1FFF735FF7179C900C9B22223BC
:101E5000EF5C7F18FFB240212800FFF715FF39091A
:101E600010231943C9B22800FFF70EFF0F21394094
:101E70002800FFF710FFB379502149421943C9B236
:101E80002800FFF708FF3179C900C9B2326828007D
:101E9000FFF708FF013CE4B2002CF4D12800FFF763
:101EA0000FFF012000E00020F8BD002A04D11249F4
:101EB000FFF70DFF0120F7E71049FFF708FF0120AA
:101EC000F2E70F49FFF703FF2B68DA7C2223EA547D
:101ED0000120E9E7FFF7EDFE81212800FFF7D4FE9E
:101EE00021002800FFF7D7FE2800FFF7E9FE0120B8
:101EF000DAE7C04658940008A0940008A8940008A7
:101F00006094000870B505000C00FFF781FF002801
:101F100012D1092C0AD00A2C0FD1280000F017F892
:101F200006492800FFF7D3FE012006E004492800F7
:101F300000F008F8012000E0012070BD689400085E
:101F4000B094000801608A7C2223C254704770B5A7
:101F500004000023002228214569A847002300220D
:101F600014212000E568A84701224B21200000F041
:101F700048F823681A792921200000F042F800224D
:101F80004B21200000F03DF823681A792921200018
:101F900000F037F801224B21200000F032F82368CE
:101FA0005A792921200000F02CF870BD10B582B0BC
:101FB0006C466171A2712371049B009384686B4627
:101FC00001220F21A04702B010BD10B58468002384
:101FD00000220921A04710BD10B58468002300220B
:101FE0000A21A04710BD10B50A00846800230B2108
:101FF000A04710BD10B58468002300221021A0471F
:1020000010BD10B544690023A04710BD00207047E3
:1020100000230360074A8260C2600261426123229A
:102020008354033283548361FF33023A835404326E
:10203000835470470D200008F8B504000F00160007
:102040001D00FFF7E5FFA760E6602561069B636161
:102050002000FFF7BAFFF8BD00B583B02939CBB235
:102060002A2B4BD89900274B5B589F46C04601202E
:1020700003B000BDC04601339BB2A0225200934280
:10208000F8D3F4E70023F8E7012000F0CFF8EEE7FB
:102090000523019302E0019B013B0193019B002B6F
:1020A000F9D1E4E7012A06D0002AE0D11021164830
:1020B00000F0F5F9DBE71021134800F0F0F9D6E75E
:1020C000012A06D0002AD2D108210F4800F0E7F9F2
:1020D000CDE708210C4800F0E2F9C8E727230022E9
:1020E000C254C4E727230022C254C0E7272300229A
:1020F000C254BCE727230022C254B8E72723012299
:10210000C254B4E7C89400080004005010B504009D
:10211000074B084A0849FEF70DFF2000FFF75CFF58
:1021200000212000FFF75FFF2000FEF7E8FE10BD52
:1021300059200008051C0008009400080D48854639
:10214000FEF7B0FE0C480D490D4A002302E0D458BA
:10215000C4500433C4188C42F9D30A4A0A4C0023F1
:1021600001E013600432A242FBD300F0F3FFFEF75C
:102170009FFDFEE700200020000000203C0400201E
:102180008C9500083C0400205C090020FEE700005C
:1021900010B504000F4B1978FA208000FDF7B4FF4A
:1021A00001000D4B1868FDF7AFFF00F08DF8002817
:1021B0000DD1032C01D901200AE0013000222100B9
:1021C000404200F045F8054B1C60002000E0012073
:1021D00010BDC046040000200000002008000020C0
:1021E00010B5084A136840210B4313600320FFF722
:1021F000CFFF041E02D00124200010BDFEF704FE14
:10220000FAE7C04600200240034A1168034B1B78DE
:102210005B1813607047C04654090020040000207A
:10222000014B18687047C0465409002070B504007F
:10223000FFF7F6FF0500631C02D0044B1B78E4187F
:10224000FFF7EEFF401BA042FAD370BD0400002050
:1022500070B5002811DB8308134EC0339B009D59D5
:1022600003242040C000FF2214008440A5438901BC
:102270000A4082402A439A5170BD0F230340083B15
:102280009B0806339B00094A944663445C6803221A
:102290001040C000FC3215008540AC4389010A4063
:1022A000824022435A60E7E700E100E000ED00E0F1
:1022B000002805DB1F2318401E3B8340014A1360A2
:1022C0007047C04600E100E0013880235B0498427B
:1022D0000FD2094A50600948036A1B021B0AC02139
:1022E00009060B4303620023936007331360002049
:1022F00070470120FCE7C04610E000E000ED00E080
:10230000F0B5002357E084685F000326BE40B44365
:102310002600CC68BC4034438460446894434A68D7
:102320001609012232409A402243426053E0DC0801
:102330000834A400265805321A4092000F2797400F
:10234000BE430F6997403A003243225057E00526BA
:1023500000E00026A64034003C4302329200454E85
:102360009451454A9468EA432600AE434F68FF0201
:1023700001D52C432600404CA660E4682600164098
:102380004F68BF0201D52C4326003B4CE6606468D1
:10239000260016404F68BF0301D52C432600364C5B
:1023A0006660246822404E68F60301D52A00224365
:1023B000314C226001330C682200DA4058D00122EF
:1023C0009A40250015401442F4D003244E6834404E
:1023D000013C012C97D903224C682240032A09D0E2
:1023E000C2685E000324B440A24314008A68B2406D
:1023F0002243C26003224C682240022A97D004681C
:102400005E0003221700B740BC434F683A40B24019
:1024100022430260C02292024C681442CAD0174C78
:10242000626B0126324362639A08941CA400114E29
:10243000A75903261E40B4000F26A640B743A02686
:10244000F605B04285D00E4EB0420BD00D4EB042D4
:102450000AD00D4EB04209D00C4EB04200D176E702
:10246000062677E7012675E7022673E7032671E75C
:10247000F0BDC046000001400004014000100240D1
:102480000004005000080050000C0050001C0050D8
:1024900003690B4201D0012070470020FCE7002AAD
:1024A00001D0816170478162FCE7000010B5264BC6
:1024B000DA680C231340082B42D00C2B11D0042BCC
:1024C00009D0214B5A68520B072313400133802057
:1024D0000002984010BD1C4B1B68DB0632D51B4820
:1024E000F8E7910C0F230B401949C85C920D0323A8
:1024F0001A40541C144BDB68DB0309D5154A002332
:102500000021FDF7ADFE22000023FDF789FEE1E783
:102510000D4B1B68DB0609D50C4A00230021FDF793
:102520009FFE22000023FDF77BFED3E7094A00232C
:102530000021FDF795FE22000023FDF771FEC9E79B
:102540000448C7E70348C5E70010024000093D0002
:10255000903300080024F400F0B583B0041E00D1CD
:102560005DE2C14BDA680C251540DE6880235B0212
:102570001E400368DB0736D5082D2CD00C2D28D043
:1025800063688022520293424DD0A022D20293422D
:1025900050D0B54B1A68B5490A401A601A688021B4
:1025A00049020A400192019A1A68B1490A401A6028
:1025B0006368002B4AD0FFF733FE0700AA4B1B6865
:1025C0009B0310D4FFF72CFEC01B6428F6D9032010
:1025D00026E2002ED4D0A44B1B689B0303D563686E
:1025E000002B00D11EE223689B0765D5E368042D0C
:1025F0003CD00C2D38D0002B00D1B0E09A490A68AD
:102600000920824313430B60FFF70AFE0600964B36
:102610001B685B0700D599E0FFF702FE801B0228CC
:10262000F5D90320FCE1904A116880235B020B433B
:102630001360BDE78C4B19688022D2020A431A60EE
:102640001968802252020A431A60B1E7FFF7E8FDD9
:102650000700854B1B689B03C5D5FFF7E1FDC01B39
:102660006428F6D90320DBE1002EC4D17E4A12682B
:10267000520702D5002B00D1D6E17B4E72687D490E
:102680000A40216909020A437260326809218A43BB
:1026900013433360FFF70AFFF26812090F23134058
:1026A000754AD35CD840754B1860754B1868FFF7B6
:1026B0006FFD002800D0B3E12368DB062DD5002D87
:1026C00060D1694B1B689B0503D5A369002B00D122
:1026D000ACE1654A53686B490B40216A0B43536078
:1026E00053681B021B0AE16909060B435360236A06
:1026F000590B013180231B028B40D16809090F223D
:102700000A405D498A5CD3405C4A13605C4B1868A0
:10271000FFF73EFD002800D082E123681B077DD52E
:102720006369002B67D0504A136D01210B43136579
:10273000FFF776FD06004C4B1B6D9B076ED4FFF731
:102740006FFD801B0228F6D9032069E146494B68DA
:10275000484A13402269120213434B60ACE7424AD5
:10276000136801218B431360FFF75AFD06003E4BAF
:102770001B685B07A0D5FFF753FD801B0228F6D925
:1027800003204DE1A369002B22D0374A1168802332
:102790005B000B431360FFF743FD0600324B1B68E1
:1027A0009B0506D4FFF73CFD801B0228F6D90320C9
:1027B00036E12D4A536833490B40216A0B4353607D
:1027C00053681B021B0AE16909060B435360A4E727
:1027D000254A13682C490B401360FFF721FD0600C2
:1027E000214B1B689B0598D5FFF71AFD801B02281B
:1027F000F6D9032014E11C4A136D01218B431365A4
:10280000FFF70EFD0600184B1B6D9B0706D5FFF763
:1028100007FD801B0228F6D9032001E123685B072E
:1028200000D48EE0104B9B6BDB001BD40E4A916BE7
:1028300080235B050B4393630126144B1B68DB0568
:1028400028D5A36880225200934237D0002B4DD167
:10285000054B1A6D0C490A401A651A6D0C490A405D
:102860001A6531E00026E8E700100240FFFFFEFF96
:10287000FFFFFBFFFFE0FFFF8033000800000020A8
:1028800008000020FF1FFFFFFFFEFFFF0070004059
:10289000FFFBFFFF6B4A116880235B000B43136053
:1028A000FFF7BEFC0700674B1B68DB05C9D4FFF7C9
:1028B000B7FCC01B6428F6D90320B1E0624A116D51
:1028C00080235B000B431365A368002B28D0FFF720
:1028D000A7FC07005C4B1B6D9B0530D4FFF7A0FCE9
:1028E000C01B5A4B9842F5D9032099E0A022D20090
:1028F000934209D0544B1A6D55490A401A651A6D16
:1029000054490A401A65DFE74F4B196D013AFF3A07
:102910000A431A65196D802252000A431A65D3E7EB
:10292000FFF77EFC0700484B1B6D9B0507D5FFF7A3
:1029300077FCC01B454B9842F5D9032070E0012E6F
:102940001AD0636A002B00D172E00C2D4FD0022BFD
:1029500018D03D4A136840490B401360FFF760FCF4
:102960000400394B1B689B013FD5FFF759FC001B46
:102970000228F6D9032053E0334A936B37490B40C2
:102980009363DEE7304A136833490B401360FFF767
:1029900047FC05002C4B1B689B0106D5FFF740FC4C
:1029A000401B0228F6D903203AE02749CB682C4A7D
:1029B0001340A26AE06A0243206B02431343CB60D8
:1029C0000A6880235B0413430B60FFF729FC0400B3
:1029D0001D4B1B689B0106D4FFF722FC001B02283D
:1029E000F6D903201CE000201AE0002018E0012B9B
:1029F00020D0154BDA6880235B021340A16A8B421A
:102A00001AD1F0239B031340E16A8B4216D1C023F5
:102A10001B041A40236B9A4212D1002000E00120CF
:102A200003B0F0BD0120FBE70120F9E70120F7E743
:102A30000020F5E70120F3E70120F1E70120EFE7AF
:102A40000120EDE7007000400010024088130000F4
:102A5000FFFEFFFFFFFBFFFFFFFFFFFEFFFFFFEF9C
:102A6000FFFF02FF70B505000C00002800D1D1E087
:102A70006A4B1A68012313408B4219D32B689B07BA
:102A800006D5674AD368F0218B43A9680B43D3600E
:102A90002B68DB077BD56B68022B20D0032B40D043
:102AA000012B44D05E4A126892051DD4012099E0A2
:102AB0005A4A136801218B4323431360FFF7B0FB8D
:102AC0000600564B1A6801231340A342D6D0FFF7E5
:102AD000A7FB801B534A9042F3D9032082E0504A5F
:102AE0001268920300D497E04D49CA6803208243DC
:102AF0001343CB60FFF794FB06006B68022B1CD0DE
:102B0000032B28D0012B34D0454BDB680C221A4212
:102B10003DD0FFF785FB801B424B9842F4D9032040
:102B200060E03F4A12689201DED401205AE03C4A3C
:102B300012685207D8D4012054E0394BDA680C23CC
:102B40001340082B23D0FFF76BFB801B354A9042C4
:102B5000F3D9032046E0324BDA680C2313400C2BE8
:102B600015D0FFF75DFB801B2E4B9842F3D9032055
:102B700038E02B4BDA680C231340042B07D0FFF707
:102B80004FFB801B274B9842F3D903202AE0234BAD
:102B90001A6801231340A34225D82B685B0706D58A
:102BA0001F4AD36820490B40E9680B43D3602B6868
:102BB0001B0707D51A49CB681C4A13402A69D20063
:102BC0001343CB60FFF772FC154BDA6812090F2331
:102BD0001340174AD35CD840164B1860164B186840
:102BE000FFF7D6FA70BD0D4A136801218B432343CA
:102BF0001360FFF715FB0600084B1A68012313400A
:102C0000A342CAD0FFF70CFB801B064B9842F3D9B6
:102C10000320E7E70120E5E70120E3E70020024089
:102C20000010024088130000FFF8FFFFFFC7FFFFFE
:102C30008033000800000020080000200368802284
:102C4000D205904205D0124A904202D0114A9042D9
:102C500003D1702293434A6813438022D2059042E5
:102C600005D00B4A904202D00A4A904203D10A4A48
:102C70001340CA681343802293430A6913430360D5
:102C80008B68C3620B688362012343617047C0464F
:102C90000008014000140140FFFCFFFFF0B51700E1
:102CA0001D00036A0122934303628269066A80233E
:102CB000DB05984208D00C4B984205D00B4B98424C
:102CC00002D001231A4302E003239A433A43F0233C
:102CD0009A432D01FF242C402243E63B9E430B40A8
:102CE000334382610362F0BD0008014000140140DB
:102CF00070B5046A1025AC4304628569046A084E05
:102D0000354012022A43074D2A401B071B0C134370
:102D1000A022944309010A4022438361026270BDEC
:102D2000FFFCFFFFFF0FFFFF70B5056A0B4C25404E
:102D30000562C469056A0326B4431443F022944330
:102D40001A01FF2313401C43054B1D400902A02319
:102D50001B0119402943C461016270BDFFFEFFFFE2
:102D6000FFF5FFFF70B5046A0B4D2C400462C56986
:102D7000046A0A4E354012022A43094D2A401B07B5
:102D80001B0C1343074A14400903A02212021140EE
:102D90002143C361016270BDFFEFFFFFFFFCFFFF36
:102DA000FF0FFFFFFF5FFFFF10B51F231940012436
:102DB0008C40036AA3430362036A8A40134303629D
:102DC00010BD70B5041E1ED03923C35C002B14D077
:102DD000392502236355210001C9FFF72FFF012385
:102DE0003E22A354043AA3540132A3540132A35403
:102DF0000132A3546355002070BD38330022C25401
:102E0000FEF710F8E4E70120F6E7000010B5040033
:102E1000002916D13A23C05CC0B2012864D1002930
:102E20001FD13A230222E25408294CD029D8002984
:102E30002FD0042959D12268D36804200343D360DA
:102E40002CE0042905D0082907D03D23C05CC0B27E
:102E5000E3E73B23C05CC0B2DFE73C23C05CC0B209
:102E6000DBE7042905D0082907D03D230222E254DC
:102E7000DAE73B230222E254D6E73C230222E25463
:102E8000D2E70C2931D12268D36810200343D360E4
:102E900004E02268D36802200343D3600122206843
:102EA000FFF782FF23688022D205934211D0104A97
:102EB00093420ED00F4A93420BD01A6801210A4365
:102EC0001A60002011E02268D36808200343D36011
:102ED000E4E7996807220A40062A07D01A68012108
:102EE0000A431A60002000E0012010BD0020FCE72A
:102EF000000801400014014070B504000D003823A3
:102F0000C35C012B59D038230121C154002A0AD0B7
:102F1000042A1AD0082A2BD00C2A3BD001203823AF
:102F20000022E25470BDEB686A6829680068FFF708
:102F3000B5FE226893690C218B43936122689369E3
:102F4000A9680B4393610020E9E7EB686A68296888
:102F50000068FFF7CDFE2268936919490B40936121
:102F600021688B69AA68120213438B610020D6E79F
:102F7000EB686A6829680068FFF7D6FE2268D369A3
:102F80000C218B43D3612268D369A9680B43D361B9
:102F90000020C4E7EB686A6829680068FFF7E2FE72
:102FA0002268D36906490B40D3612168CB69AA68BE
:102FB00012021343CB610020B1E70220B2E7C04602
:102FC000FFF3FFFF704770477047704710B504006C
:102FD00003681A6992070FD5DA6892070CD50322A5
:102FE00052421A610123037603689B699B0755D0FF
:102FF000FDF75EFD0023237623681A69520712D578
:10300000DA6852070FD5052252421A61022323764D
:1030100023689A69C0239B001A4245D02000FDF71F
:1030200047FD0023237623681A69120710D5DA6852
:1030300012070DD5092252421A6104232376236810
:10304000DB699B0737D02000FDF732FD0023237694
:1030500023681A69D20612D5DA68D2060FD5112272
:1030600052421A61082323762368DA69C0239B0041
:103070001A4227D02000FDF71BFD0023237623688A
:103080001A69D20702D5DA68D20722D423681A69EE
:10309000520602D5DA68520622D410BDFFF793FF1C
:1030A0002000FFF791FFA5E72000FFF78CFF20002D
:1030B000FFF78AFFB5E72000FFF785FF2000FFF745
:1030C00083FFC3E72000FFF77EFF2000FFF77CFFB0
:1030D000D3E7022252421A612000FFF773FFD5E7BF
:1030E000412252421A612000FFF76FFFD5E700002E
:1030F00030B53823C35C012B25D038230122C254BC
:1031000001330132C25403685A689C687025AA438F
:103110000D682A435A6003688022D205934205D085
:103120000A4A934202D00A4A934204D1802294432D
:103130004A6814439C6039230122C254013B002297
:10314000C254002030BD0220FCE7C0460008014008
:103150000014014070B50C4D0C4E761BB61005D016
:10316000002408CD01349847A642FAD100F0EAF8CD
:10317000074D084E761BB61005D0002408CD01344B
:103180009847A642FAD170BD809500088095000846
:103190008095000888950008F0B50500830749D0A0
:1031A000541E002A45D003000326CAB202E00135AE
:1031B000013C3ED301332A703342F8D1032C30D97D
:1031C000FF220A40150215432A0415430F2C34D957
:1031D0002700103F3F093E01B4461E001A0010367A
:1031E0006644156055609560D5601032B242F8D1E2
:1031F00001373F01DB190F270C22274022403C00FA
:10320000002A0ED03E1FB608B400A4461A001C1DAA
:10321000644420C2A242FCD103240136B6009B19AB
:103220003C40002C05D0C9B21C19197001339C42D6
:10323000FBD1F0BD03001400C0E72700E2E7C04661
:10324000034B10B5002B02D0024800F005F810BD6A
:10325000000000006932000810B5010000230022C0
:10326000002000F019F810BD70B5074D074C641B25
:10327000A41005D0013CA300EB589847002CF9D1CD
:1032800000F066F870BDC046889500088C9500086F
:103290007047C0467047C046F0B5D6464F464646D2
:1032A000C0B5264F82B006003868924698468946D7
:1032B000FFF7EEFF224B1B680193A423019A5B00EA
:1032C000D558002D2ED06C681F2C30DC002E0FD16D
:1032D000631C6B604B460234A40038686351FFF7EF
:1032E000D9FF002002B0E0BCBA46B146A846F0BD06
:1032F000882251462800A300EB189950873AA24033
:103300008930FF3001681143016084214046490043
:103310005850022EDCD12B008D33FF3319680A433D
:103320001A60D5E715004D35FF35D550CBE7386825
:10333000FFF7B0FF01204042D4E7C0463804002028
:1033400074950008F8B5C046F8BC08BC9E467047A6
:0C335000F8B5C046F8BC08BC9E467047AB
:10335C00352E3757000000004F4E00004F464600F8
:10336C004C4F434B45440000554E4C4F434B45444A
:10337C000000000000000000000000000102030437
:10338C0006070809030406080C101820300000007A
:10339C00BF00020204040304050C0DFFFE08FE0826
:1033AC00FE016A032C0984200500CC09210882C483
:1033BC00C991F2082207336D4BB202231087447C6B
:1033CC00CAA81C3365548E9932AA012410A53C6BF3
:1033DC001E2AA938E28849A5A1230025158AC49D77
:1033EC00D44A655523554995544649E5A87256006B
:1033FC00261188C4AC862A2395A186494B73A4A5B3
:10340C00002706316DCA00280BA4B47A8C4ABA7511
:10341C004601290AA4B44A46D974C91A2A09555C2A
:10342C006B55AD66042B0B554C6B4671C88C22004A
:10343C002C0742B4C9480A2D06135CCA002E06227A
:10344C00C4C9082F0A84C47A99638E3903300E8557
:10345C0044DB52238D34D24823A905310984459B82
:10346C009ABE4600320C8544DB52236929F338029C
:10347C00330E8544DB5223498D461A492D00340BFB
:10348C008544EB95549A636439350D8544CB2BA355
:10349C0091D14823A905360E8544DB52238FA446CF
:1034AC001A492D00370A8444CBA1638E2E00380EA6
:1034BC008544DB5223A9A5461A492D00390E8544B3
:1034CC00DB52238DA4461E492D003A0752C4C988ED
:1034DC00233B0972B4C9882329003C0956CC3B9282
:1034EC0036D6583D083554CBD070083E0A56CC8B96
:1034FC00C61A4B1B013F0A8544DBB2A5CCB409406C
:10350C0012A93CFD465A6698E248FE5432939A1E24
:10351C0011411289433CCAD4C61B468DA21E236698
:10352C00A4E608420E8744CC694935A425951C4372
:10353C000143108744ECAA47461B6AA8518DE24808
:10354C0000440F88C4CCADA3565A69A5954E6302AE
:10355C00450E86C4CB25938A23AA28931C23460E9A
:10356C0086C4CB25934C2A8EA8A21E11470E8744E5
:10357C00ECAA47461BCAA155962B48128944CD4844
:10358C002369A9E518514B2DB51A6904490984C45E
:10359C00CA48D2D7084A0C86C4EBC81A69E42BCAAD
:1035AC00094B1189C4CC88769619A90C8746525BB5
:1035BC00230E4C0F86C4CBC81A69A4914632C9316C
:1035CC00024D158B44CEC823ED995492492599543C
:1035DC0092D18CD652234E1188C48C5E3ACE38527E
:1035EC004C23C699D54E004F0E8744ECAEF4C8233D
:1035FC008FAC729E00500F8744CC694925D5901A28
:10360C006A3432005113983CEC46396AA59556231E
:10361C0049A5D148192A00520D88C4CC2D3DF3D0B0
:10362C00D235D200530D86C4DB39F2D068E811D7FD
:10363C0002540E86C4CB915C51238D34D223015598
:10364C001088C4CC484B471D75D451479D47045630
:10365C001188C4CC484B479D55462A2395A1C61AC0
:10366C0057158B44CE486A4919CDA8928A2AA9BC11
:10367C0036D21A6909581088C4CC484BC795D1C6A4
:10368C001BA599D511591188C4CC484B679591CA83
:10369C0050638D351C115A0B86C4CB91F57CEB31E4
:1036AC00025B08A334CA50FE1A5C0C84C44ACE28B0
:1036BC00679433CA015D08A334CAF2D7105E0A6559
:1036CC00546B4679A65A075F061634CB0160062365
:1036DC00748A14610954C4CA56238D01620E86C4BF
:1036EC008B461A69641D71C4B50063095544DB929D
:1036FC005BA605640E86C4FB461AA931E288232D0D
:10370C000365095544DB52E34623660C85C4EA5233
:10371C00498EA8CD9100670D86343B8A5339F7D872
:10372C00632400680E86C48B461A69641D71C4112B
:10373C0005690A84C49AD470BA46006A09A3B49A7B
:10374C00BDBC46026B0E86448B461A69648D38A24A
:10375C00B2066C0884C4CAF46B046D0D5AC48D9205
:10376C00EA11E5887244036E0B56C48B52471C71E8
:10377C0044016F0C56C4DB4872C411D54800700D5F
:10378C0076B48B52471C718CA4D106710E77B4DBC6
:10379C00505249A5A6D250A311720954C48A1A23B7
:1037AC009A00730954C4DA90230E05740973445AB1
:1037BC0052439902750B56C48B1C71C491960176B9
:1037CC000B56C4CBB2A2CA1A4900770C5944CDF29D
:1037DC008A4A65A59109780A56C4CBB2B24ED60076
:1037EC00790D76B4CBB2A2CA1AC9AD11007A0855BC
:1037FC0044CB25CD317B0AA4B4AA9296966E017C5B
:10380C00068146CB217D0AA4B48A96B6922E097EF7
:10381C000726DCDB520BA00500CC09A10982B4C938
:10382C00C8698C00A20C753C3B4A632595569A19C5
:10383C00A3108744EC88326A34B6465A8D91160030
:10384C00A40C574C4C5AC95452A9B402A51288C4A2
:10385C00CC484B6795918D341C1A69382200A60709
:10386C008146CB1A01A70DA4B4DA885BA591929E70
:10387C002301A80723744A5201A91288C4ECC81961
:10388C00954BC5A43292AB46794400AA0863548A7E
:10389C001E2A0FAB0A56C46BA546924A16AC0935C4
:1038AC0054CBD028A300AD06135CCA00AE1288C45A
:1038BC00ECC8195523A998D45449D5288F08AF06BC
:1038CC0014F4CA08B00843645AA52A00B109554C2F
:1038DC006B1C325343B20743E4D9AA06B30743E443
:1038EC00C9CA0BB4072374DA4800B50E76B48B1C26
:1038FC0071C491C61A196904B6108744DC38521A7F
:10390C0029AE8C6A54A37A08B70622DCC908B8061B
:10391C0032354A1CB90743E4599269BA0A64D49AFD
:10392C008A32693802BB0C56C44B8C4AAA91548C0F
:10393C0000BC1188C45C8EBACC2BE39851D269C4FC
:10394C009C00BD0F88C45C8EBACC2BE3A85399CBDA
:10395C0001BE1188C4CCCC35AA65C631A3A4D388CA
:10396C003901BF0B8534ABD674B4955A00C015B968
:10397C0043AC2635CF4C6DBC61D428EA3162466A23
:10398C008E00C115B9433CD458F3CAD4C61B468D1E
:10399C00A21E2366A4E608C215B943FC864A7367C7
:1039AC006AE30DA346518F1133527304C316B94306
:1039BC00BCCA28695E99DA78C3A851D463C48CD484
:1039CC001C01C416B9437CCA38655E99DA78C3A861
:1039DC0051D463C48CD41C01C516B943BCC6316325
:1039EC004D666AE30DA346518F1133527304C6140E
:1039FC008AC4ED183AC99C548E230F15B34C598EBA
:103A0C003406C712A734ECAA47461B6AA8518DE2AC
:103A1C00C828430DC812B6C49B869A1C4B26154762
:103A2C00545126394600C910B6C4BB4D8E25938A15
:103A3C0023AA28931C23CA11B6C4EB541A8F2593BE
:103A4C008A23AA28931C23CB12B6C46BCA295363AE
:103A5C00C9A4E2882ACA24C708CC0BB4C48AD6707D
:103A6C0024E96B04CD0BB4C4AAD27024E96B04CE48
:103A7C000CB5C4DAB2E188DAE74800CF0BB4C45A0B
:103A8C00371A49FA1A01D00F88C4CCADA31E53695A
:103A9C00A5954E6302D114B8C4BCCA49B3F4D27113
:103AAC00C691621A31CEAC7602D211B744ACC69A2A
:103ABC00B92B3DF2C823AB9C2700D311B744BC46AD
:103ACC009ABD2B3DF2C823AB9C2700D411B744EC14
:103ADC00569AB52B3DF2C823AB9C2700D511B744A1
:103AEC00AC8A493377A5471E796495F304D611B790
:103AFC00446CCAA866EE4A8F3CF2C82AE709D7097B
:103B0C00554C8B523B2F03D8108744ECAA931C2A9C
:103B1C008D94865439A509D913B8C4ACA63473A4B2
:103B2C00A5A38E3AEAA8A3CE2302DA14B8C43CD2D9
:103B3C005033475A3AEAA8A38E3AEA3C2200DB13E8
:103B4C00B8C4FC46363DD2D251471D75D451E7114D
:103B5C0001DC14B8C47CCA3065D6484B471D75D4FB
:103B6C0051479D4704DD15B8C43CD25033475A3AEF
:103B7C00AB8C54861A6BACE18800DE0F8744CC8684
:103B8C00435A524935A4462303DF0E8744EC8896EA
:103B9C0054A625951C4A01E00B84C48AD670AB91BF
:103BAC00C600E10B84C4AAD270AB91C600E20D959D
:103BBC00C46A5E36DC48AEA44602E30C85C49A1B8C
:103BCC006F2457522301E40B84C44A6AC3AD461ACE
:103BDC0003E50B84C49A8A496D35D218E60C58C497
:103BEC00CC5A51A971E93502E70B7534DB925BA60F
:103BFC009D2500E80C85449B469A5A6ADC6804E9CA
:103C0C000B8544AB4D2E356E3402EA0C95446B5E3D
:103C1C00365E6ADC6804EB0C85445B9932B5D4B82B
:103C2C00D108EC0A84C48AD670BA4600ED0A84C462
:103C3C00AAD270BA4600EE0B95C46A5E36DCCE9101
:103C4C0000EF0A84C44A6AC3E91A01F00E86C48BD9
:103C5C008CB31E498E38A21A09F10D86C49BAA3466
:103C6C00A9D411471C51F20E86C49B869A1E498E0C
:103C7C0038A21A09F30D86C4BB4D8F24471C518DF5
:103C8C0004F41096C46B465369722439E2886A2492
:103C9C0000F50F86C4ABAA3439921C71443512005E
:103CAC00F60F86C45B9D323D921C7144351200F7B1
:103CBC000A554C6BA686A62200F80E76BC3B4C230C
:103CCC00A9B14654236508F90D86C49B869A9423A2
:103CDC008E38D232FA0C86C4BB4DCA11471C6919F6
:103CEC00FB0F96C46B4653694A8E38E248CB00FCF6
:103CFC000D86C45B9D3229471C71A465FD0EA6B4CC
:103D0C00BB4D2E2BAAAC91DC1A01FE10A6B48B462F
:103D1C001A69641D71C43192461BFF0FA6B45B9DDA
:103D2C0032B9ACA8B246726B0400000004FFFF006D
:103D3C0000000000C200040406060506072434FD3A
:103D4C00F419F918FD045A0AA21FE820060010C342
:103D5C00242116462641659078F0C00411DA0892A9
:103D6C00F7241EA42001002216CB02DD6588124127
:103D7C0006DF90102544941051424489002337509B
:103D8C0016BF698D193766DC987163868D19376695
:103D9C00DC98412F3E1A334E90B831E3C60C7AF1C1
:103DAC00D1987163868D193766DC987163C68D194D
:103DBC0037661400243E9117B9E98997FAE0AA21D5
:103DCC0042C88C1143648C901264849420236688BE
:103DDC0009812997B56AC6509D881363C42811942C
:103DEC004450124123C888214244082186A6C5CBE1
:103DFC00100025591A06C1ED03125A5028096123E7
:103E0C00C90C2149AA8448528144120B14945818A5
:103E1C0091C4C40425164628293161098911548698
:103E2C00C4184124C418124346AC185261C3940AF6
:103E3C002A8658D040A4448A2925501029918248BA
:103E4C0009144548A4302222051A0226445826415A
:103E5C006E9607929CCC684284490D2635B80CE1CD
:103E6C0032A34D904E0FE23C88338992242161A8F5
:103E7C000C194383C81C1954C888A852A90C2133A7
:103E8C00750AD5194548443C38A3245539230027D5
:103E9C000DC4225D6488789042882C002818C926AD
:103EAC00BBA68D9AD9A861A32822457F368CD874DD
:103EBC00C3C6CD00291DC916BB260C1437D9B86151
:103ECC00C3880D23457F448AD4B051C3464D250E7B
:103EDC00002A20CC23D568899C6A881023424E88FE
:103EEC0020828C940A12228E08312264D4C891A2AA
:103EFC00002B10102443AA11A6670F7E408C303D76
:103F0C00032C12C622B7649028F160449931D20C6C
:103F1C001903002D090811CD257C20002E0C8611CB
:103F2C00C1649078908204002F1B4AF6C0248A9BAF
:103F3C004EDC74E2A613379DB8E9C44D276E3A7176
:103F4C00D3090430251016C1A91145478414213218
:103F5C00858A1023514CFFB312C488102352A80C2D
:103F6C00215244C821250600310F0D36C1E98924A0
:103F7C009461FDFF470F16322F1116C129A163441E
:103F8C00C8083113C54A982A61AA84A92285CC8C09
:103F9C002A5B31AD87891A2768A09881435E3C79EA
:103FAC00F120C4831000332A1016C1299D5B44A84C
:103FBC0048A912864A182A61A808A9A265471A2D91
:103FCC005ED86C5913C4566DB4AA0821330B4D013D
:103FDC0034281106C16987173E9A7059A3578A284D
:103FEC0028A49C9862634A0D2A34AACCB032E2CA47
:103FFC003C7840B2702D972D35271016C1E93469E5
:10400C00D3869132E172616ED5A042C2CA842B5C18
:10401C00B6C8B012A5362A42AAC820430A8D01366A
:10402C002B1116C1A99954568650994284CA142A48
:10403C00436C4CE19A187A82E284A912C5D6E9AE97
:10404C0044A922A5CA54B5F0140037211026C12961
:10405C007C10E285132722C5881423704CC0D183B1
:10406C00090FA6B62CD94AED2D3900382F1116C1DF
:10407C00699D5445A8D0B022E4889023428E4831E3
:10408C002286C8B452B86E911342278A29CC900468
:10409C004112C5C81422A5B41C0039301116C1A98F
:1040AC00115556A45025A64A142B514EBB558C4E77
:1040BC009C10510449193385AB1848A25809532553
:1040CC008A11295566902995E6003A110624C16497
:1040DC00907890823C58120F5290003B174625B7AF
:1040EC0064907890823C5812251E8C2833469A2175
:1040FC0063003C17902441AA0B26792E5556E84EA6
:10410C0096359A32A7674B8F0F3D0E9022472AFCAB
:10411C000179481EFC80003E189024412A08277C17
:10412C0032A748CF1635972A6727CB8E0E0F003F44
:10413C00234E164128195333C604A11265B63131EA
:10414C00C8604183550E1D3B56B07828491AB425DA
:10415C00310040535706C16C1E5F6AC61C4952841D
:10416C00070D17338A9C10414B448C215344C418BF
:10417C006A44882144A6CC28324508112A42888CEE
:10418C008821A3C888183288CC882183C8081923B1
:10419C00A6C4A021268C091A4344CCF04163899112
:1041AC002BE8361D00413C5906C1EC8E07371E1C0E
:1041BC007950E5419907731E0C7A20E841A4072138
:1041CC00C4F810E3628C0B323CC8B0A8A3C38C7E3D
:1041DC001070A04191C7861A1B7AA8E491540F4A1B
:1041EC002D423C5716C12C3C10F6809C2963561965
:1041FC003365CE903943E60C992B65CC94B162862D
:10420C00CC357D68CA983943E60C993B63D08CB9A0
:10421C0033E60C993364EAC883320F4601433B56AC
:10422C0016416C1A12B762582943E60A9524537644
:10423C0088D92186451C16613C847910E641980783
:10424C00611E847910E74F271E615888D931464585
:10425C00191C668A60636400443E5816412D3C0864
:10426C00F880A02973C6AC3365D090414306CF9833
:10427C003463D28C493326CD983463D28C4933269F
:10428C00CD183C63D0904143060D993365CC2A433D
:10429C000F483D08080045385516C12B7CC0C69800
:1042AC001973650C923139C6E41843D21892C6CCF6
:1042BC004833238D90E4D2084933230D4963481ABF
:1042CC0043D2981C63728C4132C61E7C300046353A
:1042DC005516C12B7CC0E6941973650C923139C606
:1042EC00A8185362C4981223C6D0A03086061A2987
:1042FC00D8A1198286069A12684AA02981E66DDC3B
:10430C00B0210047415916416D9A12C96260A973D8
:10431C00058B1525657690E141A6C59C16733CCCA2
:10432C007930E6019907641E90B907E31E8C2D7352
:10433C00B490D142464B193456D05CB11103D78C92
:10434C0035260600483E5A16412E307990848D4110
:10435C0063068D193466D0984163068D193466D086
:10436C00984163068D3D28F6A0984163068D19345B
:10437C0066D0984163068D193466D09841334C1E33
:10438C002461490F4C1641273C4863CCFEFF6F1E3D
:10439C00244A225406412A726BDCFE336186ECE619
:1043AC00909943660E9931554A9C2971E5C69C5BE0
:1043BC007B12004B3D5916C12D307980648D4153D1
:1043CC0006C99923688CA4B1A1A6C61A1A6C86B02A
:1043DC0091C226CE3E456114C5C933260D1D3475D8
:1043EC00CE983963C7CC193377CA1C0A260F902C88
:1043FC004C1D5516C12BB0646CDEFE3F1563548CFE
:10440C00513126C7981C63908CB1071F0C4D5F5F10
:10441C000641702855B17011427408D1893026C2FA
:10442C009C086322CC893026C29C104323CC0931D2
:10443C0024C49C104342CC892933C49C182362CCDD
:10444C00893122C69CA01263CC0942644E1022739F
:10445C00A20E9913659D28EB849532278C983961AF
:10446C00C48C912266468DA0076704314E495B06C9
:10447C00C12D247C504E494A724705A2149850A075
:10448C003A8122900914724CA0105402C5201228B3
:10449C00088D405148040A3B2250180A81E2140A44
:1044AC004C2812A1D083620D8A3528B81C61424A6F
:1044BC0007A91504004F2B5816416D9A676AAA9CE0
:1044CC00B952060D152D63D488511386F98F4D18EA
:1044DC003562D44CD142064D992B67AA287B9300A8
:1044EC00503A5616412C3C10F5809829CB0C993338
:1044FC0063CE8C3933E6CC983363CE8C3143A64CE7
:10450C003D08D6D23C08F320CC83300FC23C08F3D4
:10451C0020CC83300FC23453A600514DD917356DC2
:10452C009A07C1D6544173C50C9A2A5AC8A819A324
:10453C00460C9B306CC2B009C3260C9B306CC2B0CD
:10454C000943844C18396304D10833A81219436504
:10455C000C99A98386CCB6570FAA90F042E28B8CAB
:10456C004F0FE43C283200523F5916C12D3C10F835
:10457C00A0A0A973C6CC5966CE983963E68C993342
:10458C00669DB182868A367E6AC8A4A992A60C9AC8
:10459C003268CAA0A923628C191163CC84206329C8
:1045AC00181D6155060053375316C1AA1912B4626F
:1045BC000CA923048B0C254176046111654520144C
:1045CC00C1D0D5675E845321D484D8126349102599
:1045DC004174883922A7C8085924E814005422557C
:1045EC0016C12BFC208CA143A60C992A658C943106
:1045FC0052C6869913662E9C79FB3F6ED8080055DF
:10460C003D5A16412E307A70488D516266C5991507
:10461C0067569C597166C5991567569C597166C544
:10462C00991567569C597166C5991567569C5971B1
:10463C0046079A14796E281AC2ED1502564059068F
:10464C00C12CAC7A502AC9C9524687191D7652A082
:10465C00C18106851A1B6A6CE829C186061B126E7D
:10466C0046B891E146C483480F023D10F460CE83F6
:10467C00310FAA3CA8F2A0C8831B0B005758600648
:10468C004130A850F280849224A68C1532656E9825
:10469C00A972E24C991A67CAD44053A5441A3A2419
:1046AC00D2D099A185CE88358246AC111146C41A58
:1046BC00116142749212A2D1A04683FC907953E608
:1046CC004D990751AA3C9062E48190230F66DC78E7
:1046DC0040038502583A5806412CAC796046C939DA
:1046EC0053E7889D1B786AA829B16706AF569F1EB1
:1046FC00C47920E7C19C07823EF988C363CE8E390A
:10470C003AEAE03873E44E1943B2E2010A06593C26
:10471C005806412CB0796026C9C15207879D1B7879
:10472C006CE0A9A187049B197C44B889E1E941A0FC
:10473C0007621E8C7930E6C19807631E8C7930E6CF
:10474C00C19807631E8C79C6CC005A345316C16AC3
:10475C003C18F16084A913E44E8C3B32CE8CB833F8
:10476C00C20E85337CF6F0D9C386CF9E0B744CCC2D
:10477C00393106859C1B7170C4B9650F1E385B0FEF
:10478C004837B9263C2844FFFF7FF420005C2150B9
:10479C0026412A102E4CB830E1C2840B132E4CB893
:1047AC0030E1C2840B132E4CB830E1C254135D0FB0
:1047BC004817B9263C0844FFFF7FF4A0005E1B900D
:1047CC002357AA91356A12217644881121458836DF
:1047DC00858A1023512C21015F09D0003728FC60F9
:1047EC0000600C8721E36508225311290161241212
:1047FC0014412A216445C8505D8D2A5D3299894245
:10480C00660A5563A88CA132664E847820E44C0964
:10481C0000622C5306C12AA0455E7F62CCD51143A1
:10482C00862A2B53AC4CB132C5CA142B53AC4CB1A9
:10483C0032C508952A64A6D48864824A01631D0F88
:10484C0014C1A899535345A11285948D285A5383AA
:10485C00E74418136266903A4300642F5416416B78
:10486C0022466EBEBE33520C45A932874A192266C7
:10487C00A65C997265CA952957A65C9972658A19C6
:10488C002A65A80CAA1488CA206520101441A99581
:10489C004C45880C3122C4481453F6E001DBB206B7
:1048AC004594136368D0BA4300661D4F06C1269227
:1048BC0044468410914244CA941954B43A36CC8A72
:1048CC00D6FF6ED12200672B541633EA9337F5A628
:1048DC004491319595AA7F56A66009830A8B9777E8
:1048EC00F620983B470FC2902443924C39522E111C
:1048FC0002682C5416412B9C3E5F7F53AE44AA5742
:10490C00670C992A64AA50B142C50A152B54AC50B5
:10491C00B142C50A152B54AC48920743126913498E
:10492C002641E68C2A54D578288F1CAAFF930703BE
:10493C006A1D0CD832260E2C57E178589E3A57FF38
:10494C00BF18A38444111225C8202305006B2B54D7
:10495C0016412B9C3E5F7F93A64C9A52C44A8D2BDA
:10496C0043B0C8D0122519B63361AE8CB142A60A39
:10497C001D2A7522C503120A6C0E4A1641269C3953
:10498C0055FFFF6F1E146D2F1D14C12F1C3154EADF
:10499C000412540F521D4162C8A2AA2A2A5551A9C9
:1049AC008A4A5554AAA2521595AAA85445A52A4933
:1049BC0091E2C1880C6E291414412B9C297522D5C7
:1049CC00AB33864C152A56A858A162858A152A56EF
:1049DC00A858A162858A152A5624C98321096F1B00
:1049EC001114C1A9154D56A6AA22A54A94D3772510
:1049FC004A152955A6B2A4C500702ED315B32A1C8E
:104A0C00317422D119ABCA983252AE48B922E58A18
:104A1C00942B52AE48B922A6CA982A73A690AB2200
:104A2C00C68AD771D2A400712ED415336A1912A676
:104A3C0044542143A50C152B53AE4CB932E5CA9402
:104A4C002B53AE4CB942A50C953255E6188A8245CB
:104A5C00CAD7E3950B721A0F144128982961E40800
:104A6C0009242444143152D198A2F54355AA007359
:104A7C00210E144128991043A4C8B011E4449C0A97
:104A8C00A1880D9B55CC109E1B51880413218600C8
:104A9C00741ECC1541670915394372A556AC2957BC
:104AAC00BF11524648192145C4243A5606007529AF
:104ABC001414412B1C3A72E850B142C50A152B5400
:104ACC00AC50B142C50A152B54AC502943A50C99D6
:104ADC0039F52AC5A9320776251304C129A4791002
:104AEC00E6883132C646151366685C218166441629
:104AFC00116A42ECE1D3A6CB931F080077381B1444
:104B0C00C12EA448F120448A13864C9129556A90F1
:104B1C00A152C20A191266C68CC022480416115141
:104B2C0044608A1242CF1C3D63B890E152C4871195
:104B3C001F27100078231304C129A878300289A9F3
:104B4C006166C69D1899F6B471C348150E3137C805
:104B5C0014A123281E8C507931D305B329A47910C4
:104B6C00E688B141C646151366685C218166441619
:104B7C00116A42ECE1D3A6CB931F0F44E42091655C
:104B8C004416118AF83469007A1F0E144168743186
:104B9C00C8842023828C043267D09C8585841812AB
:104BAC00616844A9070F027B158837B9A6099A8852
:104BBC00FEA331844A11A2FF6AD838017C094486CD
:104BCC00412AFC070A7D160817BB260C234588FED4
:104BDC00D530324508D17F436614007E1390214DA9
:104BEC002A0D0B7466C88327630E051B0400A006F0
:104BFC000010C324A1164626336590789082BC2001
:104C0C00794384260F1E94200100A22A8F15BB69BC
:104C1C004B2C0ED59032844A142A41681B1123CA9E
:104C2C00882A22CC843064A9441813626690B2732B
:104C3C00A2058B05A32F1116C1E9994C57661821B3
:104C4C0042650A952954A650A161A4899364C59222
:104C5C0034E593892021ACCD08312BC428318186D1
:104C6C00501900A42B1014C769882123828489074A
:104C7C00441A112A428CC8C02103870C1C327008BC
:104C8C00313284C8B87850C2040931644400A52D6F
:104C9C001306C129A0791006453942C546151B5685
:104CAC004A5CA181654496115A426C09C146D9B13E
:104CBC00254F961D5BF23456A90A00A60D44864179
:104CCC002A7CA01ED483070AA73A4C273BE8941AE7
:104CDC0032480C913144C6102123886085E44C89FC
:104CEC002823A6C89812834810224168449921456C
:104CFC00041D2B588920128446101A4168089141D2
:104D0C008600A80F4B01E565881241061B12A244D0
:104D1C0000A94A5816C12C22674B8C20D171C24570
:104D2C0089072166D4A121A2880C12226894201133
:104D3C006348092A342E14A1D18446131A4D6834C1
:104D4C00A1C1A586051231889024A2108919466A42
:104D5C00D0E8616307161BBCFE2400AA1DCB0355CB
:104D6C00A698194382CC8831A48C8C193168C4184C
:104D7C001224589087E6C101AB18CC224768452411
:104D8C008D2031938C1942CD446306492548540437
:104D9C00AC0B9022472AFC0161FA00AD090811CD39
:104DAC00257C2000AE4C5706412C1E5F3B8EA0D8B4
:104DBC0061A207891723089510514306891036669E
:104DCC004CB13183888D19446CC82862E6888D18E3
:104DDC00466CC828624346111B334884A83163844F
:104DEC00883133448C7851C2458D1D38E97293005B
:104DFC00AF09CB00E5257C3000B0148922DBA694EA
:104E0C0039224684285A891023E44C1100B11450DD
:104E1C002441AA11A6D9831F10234C7B700F7E400E
:104E2C0000B2188A03D3A598113342D4993323C600
:104E3C000C9B99A020A2423C70B31D8B03D3A518E8
:104E4C001A4264CC984003C78D2A4990C418348701
:104E5C00488821630600B40E8721E325092252A25B
:104E6C0004195100B53CD415332B9C41720651B139
:104E7C0042C50A152B54AC50B142C50A152B54AC83
:104E8C00502943A50C9939F420908A2322CA1C116D
:104E9C000F463C10F220C883200F823C10F12000FA
:104EAC00B63E5516C12C3D10F280841A426AC8AC2D
:104EBC0021B386CC1A326B08A921A486541A6268D5
:104ECC00089A214A862819A2648892214A862819B0
:104EDC00A2648892214A862819720F043D10B70CDF
:104EEC008611CB64907890820400B80FC711B3E59B
:104EFC000812546A5089214400B90C8913D32589AE
:104F0C003136FF9B04BA17CB0355260D3B3305995D
:104F1C0053569D213166CCB1F1805528BB20CC2253
:104F2C004728840A254894204163068D194384C878
:104F3C00982163C60812234850A85000BC43D915C9
:104F4C00412E091E6458E0D88143470E153A72E889
:104F5C0048B103C78E1B3C6E58A861C3440D133671
:104F6C006A2A222946151E2462EC20216305891920
:104F7C003A46D05041EB860E1C3B50F0B8A107BD11
:104F8C0045D915412E091E6476E0D88143470E158C
:104F9C003A72E848B103C78E1B3C4E88A96123C402
:104FAC000C1A264210995123C8B01842E9982124B2
:104FBC000712153974E0D08182C28D13156C5C32E6
:104FCC0071AAC629BE4CDA0541AE981D3584E0B0F5
:104FDC003103C7051A377A9CE871430B0A27359EB3
:104FEC00CCD03164860521436498904144848D1162
:104FFC004364142133A34A0F1231789090C182C4B8
:10500C008C1D2368ACA08543478E1D3976E0D003F8
:10501C00BF254F1633A811356953F2108B9678ECD7
:10502C00D092254D963453C24C09336C8A142262AB
:10503C00868C3A5300C048D907C1AC8A07471E5822
:10504C007960E5C19107281EFAF1E0C8832A0FCADE
:10505C003C98F360D003410F223D0821C6871817F6
:10506C00635C90E14186451D1D66F48380030D8AC7
:10507C003C36D4D8D043258FA47A506A01C14A1942
:10508C0008C1EC8B07471E547940E5019107261E99
:10509C0036E3C18D07471E547950E6C19C07831E29
:1050AC00087A10E94108313EC4B818E3820C0F327B
:1050BC002CEAE830A31F041C6850E4B1A1C6861E7C
:1050CC002A7924D583520BC249D907C1EC8E0756D5
:1050DC001ED0792063C68B130FF57870E3C191074E
:1050EC00551E947930E7C1A007821E447A10428C79
:1050FC000F312EC6B820C3830C8B3A3ACCE807018B
:10510C00071A14796CA8B1A1874A1E49F5A0D402DC
:10511C00C345D907C1AC0E12AF5CBDA0F170391EEE
:10512C00DC7870E4419507651ECC7930E881A007E6
:10513C00911E8410E3438C8B312EC8F020C3A28EB9
:10514C000E33FA41C08106451E1B6A6CE8A19247DA
:10515C00523D28B500C449D907C12C8A124F863854
:10516C0019E264C88B120FF97870E3C19107551ED0
:10517C00947930E7C1A007821E447A10428C0F311B
:10518C002EC6B820C3830C8B3A3ACCE80701071A19
:10519C0014796CA8B1A1874A1E49F5A0D402C54D5B
:1051AC005908C1AC960734623C18E9C1480F66C473
:1051BC007840E5E1763CB8F1E0C8832A0FCA3C9808
:1051CC00F360D003410F223D0821C6871817635C9A
:1051DC0090E14186451D1D66F48380030D8A3C36A3
:1051EC00D4D8D043258FA47A506A01C6575FF6C035
:1051FC00F03D48F7202509534647182B2AC41C516B
:10520C002106470E31298D213102C71812235090E7
:10521C009941E10699192CCA08D9516C85317D4206
:10522C00F4CDC87186C4081A67488C208186C4885E
:10523C001968708C488343469A2351D0949B076D10
:10524C001E14C74B1618336C1A12B762582943E652
:10525C000A9524537688D92186451C16613C84799D
:10526C0010E6419807611E847910E74F271E61589C
:10527C0088D9314645191C668A6063F420C4031230
:10528C000FA83CA8F180C68B180F842800C84615BF
:10529C0018C12B8A07431E487920E5C19007241EAC
:1052AC00F483076C8C993157C6201993634C8E315B
:1052BC00248D2169CC8C3433D208492E8D90343313
:1052CC00D2903486A431248DC93126C7182463ECBE
:1052DC00C10703C9441518C1AB8B07431E44F9F22F
:1052EC00E4818807FFE0011B6366CC953148C6E476
:1052FC001893630C4963481A3323CD8C3442924B78
:10530C002324CD8C34248D21690C4963728CC931D2
:10531C0006C9187BF0C100CA431518C1AB8E0752E1
:10532C00FEF498B1E2C4C3E2C10336C6CC982B6339
:10533C00908CC93126C71892C6903466469A196962
:10534C0084249746489A1969481A43D21892C6E49D
:10535C001893630C9231F6E08301CB451518C1EB21
:10536C0089124B862819A264C88A120F93070FD88A
:10537C00183363AE8C413226C7981C63481A43D24B
:10538C0098196966A411925C1A216966A421690CAA
:10539C004963481A93634C8E3148C6D8830F06CCA8
:1053AC00164C1841A78824582551F1A01FA431662A
:1053BC00FFFF370F12CD174C1841278A2457AC1812
:1053CC0041F1E01FA43166FFFF370F12CE180C1805
:1053DC0041670D2C7668CC1071E2413E4863CCFEDF
:1053EC00FF6F1E24CF1C0C1841A78812428604198B
:1053FC0012648888120FF4411A63F6FF7FF32001C0
:10540C00D03F5816412D3C08F880A02973C6AC3308
:10541C0065B0944143060D193C63D28C4933261F69
:10542C00907A40CA8C493326CD983463F08C414332
:10543C00060D993365AE9829430F483D080800D1F5
:10544C0054DB07C1AD0E120F443D08F540048D87A7
:10545C00A3840FCA294949EEA8409402130A542781
:10546C0050043281428E0914824AA018440205A1CC
:10547C0011280A89406147040A4321509C42810942
:10548C004522147A50AC41B1060597234C48E920CB
:10549C00B58200D239181841ED8907461E5479504F
:1054AC00E5819107271E72F34C4D953357CAA0A185
:1054BC00A2658C1A316AC230FFB109A3468C9A29B5
:1054CC005AC8A02973E54C15656F1200D33A181809
:1054DC0041ED83100F8C3CA0F260CA83210F4A3C33
:1054EC00D4E6999A2A67AE94414345CB183562D4D9
:1054FC008461FE6313468D183553B4904153E6CA4C
:10550C00992ACADE2400D438181841ED8E07551E8E
:10551C00CC791063868B130F37E6999A2A67AE9471
:10552C00414345CB183562D48461FE6313468D1814
:10553C003553B4904153E6CA992ACADE2400D533B8
:10554C00D817416D0E12AE5AB9A0F170659EA9A97B
:10555C0072E64A193454B48C5123464D18E63F3642
:10556C0061D4885133450B193465AE9CA9A2EC4D1E
:10557C0002D6381818412D8A124E863419D26488F6
:10558C008B120F47E6999A2A67AE94414345CB1884
:10559C003562D48461FE6313468D183553B4904143
:1055AC0053E6CA992ACADE2400D723502441AA0400
:1055BC000D337044B145268C9861A50EA54974AA8B
:1055CC00D81831616859898163820601D845D8168B
:1055DC003FED83126B48E4C342E6CC152B58AAA4CA
:1055EC00198348CC8930716C443B31CC04B11AC45A
:1055FC004A1423616CC43119D742DC098446109AD1
:10560C003159AA603173E54C1114C1509459F1A071
:10561C0000D94B1A1841AE8A07481E5C7970E50117
:10562C009207291E32460F0EA9314ACCAC38B3E290
:10563C00CC8A332BCEAC38B3E2CC8A332BCEAC38FD
:10564C00B3E2CC8A332BCEAC38B3E2CC8A332BCE3C
:10565C00E8409322CF0D4543B8BD4200DA4C1A18EE
:10566C0041EE03110F903CB0F2A0CA83220F4E3CC6
:10567C00748C1E1C52639498597166C599156756A3
:10568C009C597166C5991567569C597166C59915D3
:10569C0067569C597166C5991567569CD1812645EC
:1056AC009E1B8A86707B8500DB4A1A18412E8F0759
:1056BC00571ED47930D38310271EE68C1E1C5263E0
:1056CC009498597166C5991567569C597166C59918
:1056DC001567569C597166C5991567569C59716624
:1056EC00C5991567569CD18126459E1B8A86707B71
:1056FC008500DC4C1A1841AE8A120F820C7932E408
:10570C00C99007214A3CCC193D38A4C62831B3E2D4
:10571C00CC8A332BCEAC38B3E2CC8A332BCEAC381C
:10572C00B3E2CC8A332BCEAC38B3E2CC8A332BCE5B
:10573C00AC38A3034D8A3C37140DE1F60A01DD4B5E
:10574C00580841EC03110F8C3CA0F260CA83210F66
:10575C004A3C8CD93C3093E460A983C3CE0D3C36D3
:10576C00F0D4D04382CD0C3E22DCC4F0F420D00324
:10577C00310FC63C18F360CC83310FC63C18F36074
:10578C00CC83310FC63C636600DE375616412C3095
:10579C00656D1E847910E641387C10CC946586CCFE
:1057AC00993167C69C197366CC993167C698215399
:1057BC00A61E046B691E847910E6419866CA140013
:1057CC00DF36520641AAA124518E103142A40AD5CB
:1057DC0047A40A912A34ACCCB812C60AD5559952B2
:1057EC00654A952955A6549952654A112A45A844EB
:1057FC0010226F509002E02CD21541AA89275E3DF1
:10580C007910E241236445AA505D8D2A5D32998955
:10581C0042660A5563A88CA132664E847820E44C0B
:10582C000900E12CD215416A8A275DB83071F1D09C
:10583C00206445AA505D8D2A5D32998942660A55CD
:10584C0063A88CA132664E847820E44C0900E22DCA
:10585C00921541EA0D2F7C74CC4071E2C122644553
:10586C00AA505D8D2A5D32998942660A5563A88CCF
:10587C00A132664E847820E44C0900E32C92154149
:10588C006A0D12A84EA1A0F1B040C88A54A1BA1A50
:10589C0055BA64321385CC14AAC650194365CC9CF6
:1058AC0008F140C8991200E430D215412A891248F7
:1058BC00861C197264088A120F3D4256A40AD5D56B
:1058CC00A8D22593992864A6503586CA182A63E66F
:1058DC0044880742CE9400E530D21541AA151E31FA
:1058EC00568C583162470C2E0F1C212B5285EA6ABC
:1058FC0054E992C94C143253A81A43650C95317370
:10590C0022C40321674A00E6361A14416E992A48CC
:10591C00840455A30C912964A848A1624448152B12
:10592C00220659A107471EA43053D650D952060F50
:10593C009D13616444A9216916993B0400E727CFA4
:10594C0015B3A8991B43A68A42250A291B51B4A654
:10595C0006CF893026C4CC207547050B2E3D78A088
:10596C0088A1C400E828D015416989265C3571F1FD
:10597C00804B0E2145884C2922A5481453F6E00192
:10598C00DBB2064594136368D0BA4300E929D015FD
:10599C0041A98A265BB42861F1E04B0E2145884C65
:1059AC002922A5481453F6E001DBB2064594136393
:1059BC0068D0BA4300EA2A901541E90D2E7A70CCD2
:1059CC003071E241961C428A109952444A9128A6A1
:1059DC00ECC103B6650D8A2827C6D0A0758700EBED
:1059EC002ED01541298912468614195264888912C1
:1059FC000F6DC921A408912945A4148962CA1E3CC3
:105A0C00605BD6A08872620C0D5A770800EC13C943
:105A1C0015C1650823551939B1470ED5FFC9830146
:105A2C00ED14C915C165092354A60C29F1470ED5EF
:105A3C00FFC98301EE148BF5C0258D2B75660A7199
:105A4C00A20F1DABFFA32409EF17CB05C16588126C
:105A5C0041061B12A2C4833C74ACFE8F92A400F0CE
:105A6C002C9116416A871B35ACC8C8B3654F8E2084
:105A7C00388660A0D20455113143AA482913E4F4A6
:105A8C00BB12A58A942A5359D26200F13194154164
:105A9C00AB0D12AA52A9A0F1303953EA44AA5767A8
:105AAC000C992A64AA50B142C50A152B54AC50B1BA
:105ABC0042C50A152B54AC4892074312F222D11559
:105ACC00C16909275D3979F1C08B262B5355915249
